:100000000C94F4000C9411010C9411010C94110146
:100010000C9411010C9411010C9411010C9489079A
:100020000C9411010C9411010C9411010C94110108
:100030000C9411010C94DA070C9411010C94110129
:100040000C9411010C9411010C9430070C941101C3
:100050000C9450020C9411010C9411010C94110198
:100060000C9411010C941101001F000000001F00EE
:10007000001F101010101F00001F181818181F0064
:10008000001F1C1C1C1C1F00001F1E1E1E1E1F000C
:10009000001F1F1F1F1F1F0003070F1F0F07030055
:1000A000001F1F1F1F1F1F001B1B1B1B1B1B1B00D9
:1000B000181C1E1F1E1C18000004040E0E1F1F001B
:1000C000001F1F0E0E0404000000000000000000CE
:1000D000000E1915130E0000000E1515150E000068
:1000E000000E1315190E0000000E111F110E000056
:1000F000487A2020202020202020007A65726F6519
:1001000064202020202020202020202020202020AB
:10011000200D002020202020202020202020202012
:100120000D007046006E46007546006D460043782F
:100130003A20004E6F7420612063617061636974BE
:100140006F7220202020202020202020202020200E
:100150002020200D002020202020202020202020D2
:1001600020200D006E48007548006D48004C783A1C
:1001700020004E6F7420616E20696E647563746F29
:10018000722020202020202020202020202020201D
:1001900020200D000D0A000D0A000D0A000D0A00B6
:1001A0000D0A000D0A687474703A2F2F7777772E36
:1001B000001B5B25643B256448001B5B3F32356CAC
:1001C000001B5B3F323568001B5B25646D001B5BC9
:1001D000324A001B63003031323334353637383918
:1001E000414243444546000011241FBECFEFD4E0F6
:1001F000DEBFCDBF12E0A0E0B1E0ECEEF8E202C05D
:1002000005900D92AE36B107D9F713E0AEE6B2E035
:1002100001C01D92A732B107E1F70E94A2080C9419
:1002200074140C9400002FB7F89483E792E0909335
:1002300005038093040380E490E090930703809388
:10024000060310920B0310920A03109209031092F6
:1002500008032FBF2FB7F89483EB92E090931A0313
:100260008093190380E490E090931C0380931B0318
:100270001092200310921F0310921E0310921D0370
:100280002FBF08959093F4028093F30208959B0189
:10029000AC0160587B47814E9F4FF3E0660F771F9C
:1002A000881F991FFA95D1F7E4E0220F331F441FEE
:1002B000551FEA95D1F70E94181421503040209321
:1002C000C4003093C50008952FB7F89483E792E0F7
:1002D000909305038093040380E490E090930703D8
:1002E0008093060310920B0310920A0310920903E5
:1002F000109208032FBF2FB7F89483EB92E09093EE
:100300001A038093190380E490E090931C03809378
:100310001B031092200310921F0310921E031092D1
:100320001D032FBF1092F4021092F30288ED809308
:10033000C10060E875E280E090E00E9447018FEF25
:100340008093F7021092140310922203109221035B
:100350007894089584E093E0089589E193E0089506
:10036000982F8091F7028823E1F39093C6001092B2
:10037000F7020895DC0140910603509107034115EF
:10038000510561F1209108033091090321153105D0
:1003900029F16FB7F89480910A0390910B03E091D3
:1003A0000403F0910503E80FF91FE0810196909393
:1003B0000B0380930A038417950730F0841B950B79
:1003C00090930B0380930A0321503040309309032C
:1003D000209308036FBFEC938FEF089580E008959A
:1003E000DF93CF930F92CDB7DEB7CE0101960E9477
:1003F000BA01882319F42FEF3FEF03C08981282F1A
:1004000030E0C9010F90CF91DF9108951092090358
:100410001092080308958091080390910903892B95
:1004200011F080E008958FEF08958FEF809314030B
:100430006FB7F89440911D0350911E03411551056B
:1004400011F4E0E023C080911F0390912003E0911C
:100450001903F0911A03E80FF91FE08101969093B8
:10046000200380931F0320911B0330911C038217EC
:10047000930730F0821B930B9093200380931F030C
:100480004150504050931E0340931D036FBF809115
:10049000F7028823E1F3E093C6001092F702089573
:1004A0001F920F920FB60F9211242F933F934F93E9
:1004B0005F936F938F939F93EF93FF9380911403B8
:1004C000882391F140911D0350911E034115510560
:1004D00049F16FB7F89480911F0390912003E09148
:1004E0001903F0911A03E80FF91FE0810196909328
:1004F000200380931F0320911B0330911C0382175C
:10050000930730F0821B930B9093200380931F037B
:100510004150504050931E0340931D036FBFE09322
:10052000C60005C0109214038FEF8093F702FF916D
:10053000EF919F918F916F915F914F913F912F918B
:100540000F900FBE0F901F9018959093F602809316
:10055000F50208951F93182F8A3031F4E091F502C7
:10056000F091F6028DE00995E091F502F091F60226
:10057000812F09951F910895CF93DF93EC01009788
:1005800021F406C021960E94AA0288818823D1F70F
:10059000DF91CF910895EF92FF920F931F93CF9326
:1005A000DF938C017A010097E9F020E030E0261714
:1005B000370738F4F80181918F012F5F3F4F88236F
:1005C000B1F7C0E0D0E00BC0F8018081882319F0BA
:1005D0000F5F1F4F01C080E20E94AA022196CE1534
:1005E000DF0590F3DF91CF911F910F91FF90EF9076
:1005F0000895CF93DF93EC01009719F407C00E9490
:10060000AA02FE01219684918823C9F7DF91CF9138
:1006100008958AE00E94AA020895E82FF0E0EF70A2
:10062000F070EA52FE4FE4918E2F0E94AA020895C4
:100630001F93182F82958F700E940D03812F0E94A7
:100640000D031F9108951F93182F892F0E941803DF
:10065000812F0E9418031F910895EF92FF920F932C
:100660001F937B018C01AA27BB270E942303C7018C
:100670000E9423031F910F91FF90EF9008952F92F6
:100680003F924F925F926F927F928F929F92AF9222
:10069000BF92CF92DF92EF92FF920F931F93DF935F
:1006A000CF93CDB7DEB7A3970FB6F894DEBF0FBEDA
:1006B000CDBF6AA3242E2BA337014801442351F058
:1006C00017FF08C0EE24FF248701E618F708080981
:1006D000190902C0840173012AA1215090E0211060
:1006E00091E0291B29A318A2A82EBB24CC24DD2429
:1006F000C801B701A60195010E941814FB01EF7013
:10070000F070EA52FE4F64916F8FC801B701A601E5
:1007100095010E941814C901DA017C018D01BEE126
:100720004B2E512C4C0E5D1E39A025C0E114F10456
:1007300001051105C9F0C801B701A60195010E9484
:100740001814FB01EF70F070EA52FE4F6491F20151
:100750006083C801B701A60195010E941814C90160
:10076000DA017C018D0103C02BA1F20120833A94B0
:100770000894410851083320C9F6CE014F968C01E8
:10078000E9A10E1B11092220F1F097FE05C08DE2B0
:10079000F80182938F0117C0C80101976114710499
:1007A0008104910419F08C018BE202C08C0180E27B
:1007B000F801808308C0F80181918F010E94AA028C
:1007C000FAA1F150FAA32AA12223A9F7A3960FB602
:1007D000F894DEBF0FBECDBFCF91DF911F910F9177
:1007E000FF90EF90DF90CF90BF90AF909F908F9051
:1007F0007F906F905F904F903F902F9008954F9211
:100800005F926F927F928F929F92AF92BF92CF92A0
:10081000DF92EF92FF920F931F93CF93DF93482EB7
:100820005A016B0120E030E040E050E0C601B50124
:100830000E94541018161CF43501460106C03501FB
:10084000460197FA909497F8909455240F2EF0E073
:10085000EF2EF0E0FF2EF0E80F2FFFE31F2FF02D1B
:10086000A8019701C401B3010E947A0F20E030E093
:1008700040E251E40E94B41087FD0EC020E030E059
:1008800040E251E4C801B7010E94800E7B018C0157
:1008900053948FE0581621F720E030E040E050E01C
:1008A000C601B5010E94B410882314F48DE201C082
:1008B0008BE20E94AA02DD24AA2456C0A801970157
:1008C000C401B3010E947A0F0E94AA0CB62ED62A48
:1008D000CD2DD0E0CC24DD2420E030E040E85FE303
:1008E000C801B7010E942410882319F481E0C82EA2
:1008F000D12CCC29DD29CD2B39F08B2D805D0E94A8
:10090000AA02DD24DA9404C080E20E94AA02DD2457
:1009100020E030E040E85FE3C801B7010E94241006
:10092000882319F48EE20E94AA026B2D70E08827BA
:1009300077FD8095982F0E94E410A80197010E94EE
:10094000800E9B01AC01C401B3010E94220E3B0149
:100950004C0120E030E040E251E4C801B7010E94C0
:100960007A0F7B018C01A394A41408F4A7CFDF9124
:10097000CF911F910F91FF90EF90DF90CF90BF909C
:10098000AF909F908F907F906F905F904F90089561
:10099000289829982A98209A219A229A87B1807FAC
:1009A00087B988B18F6088B90895289887B1807F0A
:1009B00087B988B18F6088B9299A2A9A8AE18A957D
:1009C000F1F79AE11CC02A98892F8A95F1F7892FAF
:1009D0008A95F1F72A9A892F8A95F1F7892F8A95B6
:1009E000F1F72A98892F8A95F1F7892F8A95F1F7DF
:1009F0002A9A892F8A95F1F7892F8A95F1F73399E9
:100A0000E2CF2A9808951F93182F0E94D5042898A2
:100A100029982A9A87B18F6087B988B1912F9295CA
:100A20009F70807F982B98B99AE1892F8A95F1F76A
:100A3000892F8A95F1F72A98892F8A95F1F7892FBE
:100A40008A95F1F72A9A88B11F70807F812B88B927
:100A5000892F8A95F1F79A95F1F72A9887B1807FC7
:100A600087B988B18F6088B91F9108950E94D50415
:100A700087B1807F87B988B18F6088B92898299A13
:100A80002A9A8AE1982F9A95F1F7982F9A95F1F77B
:100A900096B12A98282F2A95F1F7282F2A95F1F751
:100AA0002A9A282F2A95F1F78A95F1F786B18F7047
:100AB0009295907F2A98892B08951F93182F0E9452
:100AC000D504289A29982A9A87B18F6087B988B166
:100AD000912F92959F70807F982B98B99AE1892FDA
:100AE0008A95F1F7892F8A95F1F72A98892F8A95A7
:100AF000F1F7892F8A95F1F72A9A88B11F70807FC4
:100B0000812B88B9892F8A95F1F79A95F1F72A9860
:100B100087B1807F87B988B18F6088B91F910895A8
:100B20000E94D50487B1807F87B988B18F6088B96A
:100B3000289A299A2A9A8AE1982F9A95F1F7982F5C
:100B40009A95F1F796B12A98282F2A95F1F7282F30
:100B50002A95F1F72A9A282F2A95F1F78A95F1F725
:100B600086B18F709295907F2A98892B08950E9464
:100B7000C80488E20E94030581E00E94030588E51D
:100B800092E020E931E0F9013197F1F70197D9F7C7
:100B900086E00E9403058CE00E94030582E00E942B
:100BA000030580E80E940305089582E00E94030582
:100BB000089581E00E9403050895623031F06330AA
:100BC00031F0613029F4805C03C08C5E01C08C5A26
:100BD00080680E9403050895FF920F931F93CF939F
:100BE000DF93EC01162F042F0E943605F82E000F1C
:100BF000000F000F110F110F110FC10FD11D10E0C9
:100C0000812F800F80640E940305FE0184910E9461
:100C10005D051F5F2196183099F78F2D80680E941F
:100C20000305DF91CF911F910F91FF9008950F93CE
:100C30001F93CF93DF93062F009749F0EC0110E04C
:100C400004C089910E945D051F5F1017D0F3DF91EA
:100C5000CF911F910F9108957F928F929F92AF92A3
:100C6000BF92CF92DF92EF92FF920F931F93742E59
:100C70009C01220F331F280F391F220F331F872D8E
:100C800090E0AC01249FC001259F900D349F900DF2
:100C900011240E9404145B01CC24DD24C601B5019B
:100CA00026E030E040E050E00E941814862E99249F
:100CB000EE24FF2487011FC0D801C7010596A11D9E
:100CC000B11DA816B906CA06DB0610F085E008C0FB
:100CD000AE14BF04C006D10610F0882D01C080E01C
:100CE0000E945D05939486E090E0A0E0B0E0E80EFD
:100CF000F91E0A1F1B1F9714F8F21F910F91FF9006
:100D0000EF90DF90CF90BF90AF909F908F907F90AB
:100D1000089583ED91E00E94F90208958EEC91E030
:100D20000E94F9020895FC018FB7F89471836083E3
:100D30005383428317821682158214828FBF0895CF
:100D4000DC014FB7F89414968D919C911597892BDF
:100D500011F4E0E025C016968D919C911797ED91C6
:100D6000FC911197E80FF91FE081019617969C936B
:100D70008E93169712962D913C9113978217930795
:100D800030F0821B930B17969C938E9316971496B4
:100D90008D919C911597019715969C938E9314971E
:100DA0004FBF8E2F0895FC014FB7F8948481958131
:100DB00068177907B0F486819781860F971F97830C
:100DC0008683228133818217930720F0821B930B45
:100DD0009783868384819581861B970B9583848373
:100DE00002C0158214824FBF0895FC01CB012FB7BA
:100DF000F8942FBF2681378162817381820F931F00
:100E00000E9404140190F081E02DE80FF91F808109
:100E100008951F93CF93DF93EC01162F4FB7F894EB
:100E20002C813D816A817B812617370798F48E815A
:100E30009F81820F931F0E940414E881F981E80FBB
:100E4000F91F10838C819D8101969D838C834FBFF8
:100E50008FEF02C04FBF80E0DF91CF911F910895C7
:100E60001F920F920FB60F9211242F933F934F931F
:100E70005F936F937F938F939F93AF93BF93EF9302
:100E8000FF936091C6008091F3029091F402892B48
:100E900039F0E091F302F091F402862F09950FC02A
:100EA00084E093E00E940907882349F4809121039C
:100EB0009091220301969093220380932103FF9146
:100EC000EF91BF91AF919F918F917F916F915F91C2
:100ED0004F913F912F910F900FBE0F901F9018953B
:100EE000682F89E193E00E9409070895FC018FB7FC
:100EF000F8948FBF2281338184819581281B390B1F
:100F0000C9010895FC018FB7F894158214828FBF30
:100F100008951F920F920FB60F9211242F933F93B3
:100F20004F935F938F939F93AF93BF9320918400D0
:100F300030918500309372022093710280916F028C
:100F400090917002489701F51092850010928400EC
:100F500080916E0290E0A0E0B0E0DC019927882744
:100F600040E050E0820F931FA41FB51F8093FC0246
:100F70009093FD02A093FE02B093FF0210927002C4
:100F800010926F0210926E0280916F029091700227
:100F900001969093700280936F02BF91AF919F91E1
:100FA0008F915F914F913F912F910F900FBE0F90B6
:100FB0001F9018951F920F920FB60F9211248F93C6
:100FC00080916E028F5F80936E028F910F900FBEA3
:100FD0000F901F901895E1E8F0E080818760808392
:100FE000EFE6F0E0808181608083E0EBF0E08081DB
:100FF00082608083E1EBF0E08081876080838DE711
:101000008093B300E0E7F0E0808182608083569AAD
:10101000539A549857985C9A5F9A08957F928F924A
:101020009F92AF92BF92CF92DF92EF92FF920F9377
:101030001F93DF93CF93CDB7DEB77888C988DA885E
:10104000F3E1EF2EF12CEC0EFD1E14C0882381F489
:1010500080E090E0CF91DF911F910F91FF90EF9092
:10106000DF90CF90BF90AF909F908F907F9008952A
:101070000E94AA0296012F5F3F4F772021F0F601D0
:101080006901849103C0F601808169018532F1F61E
:101090002F5F3F4F772021F0F6016901849103C053
:1010A000F60180816901843629F0883781F0833622
:1010B000F9F606C000E117E2EAE0AE2EB12C0CC052
:1010C000F701808122E030E0E20EF31ED1CF00E094
:1010D00010E170E1A72EB12C62E0862E912C8E0CCF
:1010E0009F1CF701E080F1808436B1F4F7FE11C057
:1010F000F094E194F108F3948DE20E94AA0209C0F1
:10110000C8016AE070E00E9404148B01623071052E
:1011100018F0E016F106A0F3C701B8010E9404140C
:10112000862F0E940D03C701B8010E9404147C01A0
:10113000C801B5010E9404148B016115710561F7A6
:10114000740198CF2F923F924F925F926F927F924D
:101150008F929F92AF92BF92CF92DF92EF92FF92C7
:101160000F931F93CF93DF930E94B7050E94EB0765
:1011700078948DE595E09093F6028093F50280E0F7
:1011800091E00E94BC0261E080E00E94DD0581E107
:1011900091E00E94BC0280E197E220E931E0F90190
:1011A0003197F1F70197D9F70E946401C0EBD1E0C4
:1011B000D093F602C093F50280E091E00E94BC0259
:1011C00083EA91E09F938F9311E01F930E940E0892
:1011D00081E191E00E94BC0280EA91E09F938F93AD
:1011E0001F930E940E088DB79EB706960FB6F8940F
:1011F0009EBF0FBE8DBF4C992CC08DE595E090939E
:10120000F6028093F50260E080E00E94DD0582E254
:1012100091E00E94BC0261E080E00E94DD0583E372
:1012200091E00E94BC02D093F602C093F50282E2E4
:1012300091E00E94BC0283E391E00E94BC028DE930
:1012400091E09F938F931F930E940E080F900F9031
:101250000F904C9BFECF84E491E00E94BC028AE98F
:1012600091E09F938F9381E08F930E940E088DE50C
:1012700095E09093F6028093F50260E080E00E9492
:10128000DD0584E491E00E94BC0261E080E00E9400
:10129000DD0585E591E00E94BC0280EB91E0909332
:1012A000F6028093F50220E83EE30F900F900F9036
:1012B00040E951E0CA010197F1F721503040D1F7E0
:1012C0008091FC029091FD02A091FE02B091FF027C
:1012D0008093000390930103A0930203B093030350
:1012E0007C018D0132E0EE0CFF1C001F111F3A95AE
:1012F000D1F7E80EF91E0A1F1B1F20E240E06AE04A
:101300008AE00E943F0387E991E09F938F9381E0F9
:101310008F930E940E085B9A20E137E20F900F90A6
:101320000F9040E951E0CA010197F1F72150304098
:10133000D1F78091FC029091FD02A091FE02B09144
:10134000FF028093150390931603A0931703B093A5
:1013500018037C018D0122E0EE0CFF1C001F111F01
:101360002A95D1F7E80EF91E0A1F1B1F20E240E064
:101370006AE08AE00E943F0384E991E09F938F93A3
:1013800081E08F930E940E085B98209100033091BA
:1013900001034091020350910303CA01B901F2E035
:1013A000660F771F881F991FFA95D1F7620F731F79
:1013B000841F951F0E9496110E9471145B016C019D
:1013C0002091150330911603409117035091180393
:1013D000CA01B901E2E0660F771F881F991FEA95DD
:1013E000D1F7620F731F841F951F0E9496110E94F0
:1013F00071147B018C019B01AC01C601B5010E94F7
:10140000220E9B01AC016FE373EE8CE790E30E9428
:101410007A0F9B01AC01C801B7010E94800E7B01CD
:101420008C016093100370931103809312039093C7
:1014300013036BED7FE089E490E40E94711420E0D7
:1014400030E040E850E40E94800EA60195010E9421
:10145000800EA80197010E94800E9B01AC0160E004
:1014600070E080E89FE30E947A0F609323037093FB
:10147000240380932503909326038DE595E09093B4
:10148000F6028093F5023D9A20ED37E00F900F9021
:101490000F904DE6442E41E0542E95E5292E91E023
:1014A000392EC7E6D1E08AE6C82E81E0D82E02E7C1
:1014B000802E01E0902E10E9612E11E0712E05C002
:1014C000C3010197F1F72150304021153105C1F7D3
:1014D00060E080E00E94DD054C99C1C08091FC0273
:1014E0009091FD02A091FE02B091FF020397A10529
:1014F000B10518F49F928F9291C120910003309111
:1015000001034091020350910303CA01B901B2E003
:10151000660F771F881F991FBA95D1F7620F731F47
:10152000841F951F0E9496110E9471147B018C01EB
:101530002091FC023091FD024091FE025091FF0289
:10154000CA01B901A2E0660F771F881F991FAA95EB
:10155000D1F7620F731F841F951F0E9496110E947E
:1015600071149B01AC01C801B7010E947A0F20E001
:1015700030E040E85FE30E94220E20912303309187
:10158000240340912503509126030E94800E60930E
:101590000C0370930D0380930E0390930F035F92DF
:1015A0004F92AA24A394AF920E940E08E0900C03DD
:1015B000F0900D0300910E0310910F030F900F9008
:1015C0000F9027E137EB41ED58E3C801B7010E94C6
:1015D0005410181684F420E030E04AE754E4C801BF
:1015E000B7010E94800EAB01BC0184E00E94FF03A2
:1015F000DF92CF922BC025E93FEB46ED53E3C801C4
:10160000B7010E945410181684F420E034E244E735
:1016100059E4C801B7010E94800EAB01BC0184E00F
:101620000E94FF03DF93CF9311C028E23BE64EE612
:101630005EE4C801B7010E94800EAB01BC0184E0EA
:101640000E94FF0384E691E09F938F93AF920E94E4
:101650000E080F900F900F903F922F92DFC0809155
:10166000FC029091FD02A091FE02B091FF028C520B
:101670009140A040B04018F483E391E0CDC02091A8
:101680000003309101034091020350910303CA010A
:10169000B901F2E0660F771F881F991FFA95D1F7FD
:1016A000620F731F841F951F0E9496110E94711470
:1016B0007B018C012091FC023091FD024091FE02E1
:1016C0005091FF02CA01B901E2E0660F771F881F3F
:1016D000991FEA95D1F7620F731F841F951F0E940F
:1016E00096110E9471149B01AC01C801B7010E94C0
:1016F0007A0F20E030E040E85FE30E94220E209164
:1017000010033091110340911203509113030E9472
:10171000800E6093F8027093F9028093FA0290931E
:10172000FB028EE291E09F938F93AA24A394AF9241
:101730000E940E08E090F802F090F9020091FA027F
:101740001091FB020F900F900F9027E137EB41EDC6
:1017500058E3C801B7010E945410181684F420E021
:1017600030E04AE754E4C801B7010E94800EAB01A3
:10177000BC0184E00E94FF038BE291E043C025E9B5
:101780003FEB46ED53E3C801B7010E945410181611
:1017900084F420E034E244E759E4C801B7010E9430
:1017A000800EAB01BC0184E00E94FF0388E291E05F
:1017B00029C02FEF36EE4BED5EE2C801B7010E9463
:1017C0005410181684F428E23BE64EE65EE4C801A5
:1017D000B7010E94800EAB01BC0184E00E94FF03B0
:1017E00085E291E00FC025EA34ED48E653E5C801F3
:1017F000B7010E94800EAB01BC0184E00E94FF0390
:1018000082E291E09F938F93AF920E940E080F9017
:101810000F900F9083E191E09F938F9381E08F93DE
:101820000E940E080F900F900F904F992BC060E010
:1018300080E00E94DD058BEF90E09F938F9381E025
:101840008F930E940E0861E080E00E94DD0585E52F
:1018500091E00E94BC0260E080E00E94DD05809182
:10186000FC029091FD02A091FE02B091FF028093D4
:10187000000390930103A0930203B09303030F901E
:101880000F900F904F9BFECF61E080E00E94DD053E
:101890008091FC029091FD02A091FE02B091FF02A6
:1018A0007C018D0122E0EE0CFF1C001F111F2A9508
:1018B000D1F7E80EF91E0A1F1B1F20E240E066E088
:1018C0008AE00E943F0380EF90E09F938F9381E036
:1018D0008F930E940E0820ED37E00F900F900F902D
:1018E000EFCD70E07F936F9390E09F938F9381EBA8
:1018F00091E09F938F9381E08F930E940E088DB7A4
:101900009EB707960FB6F8949EBF0FBE8DBF089581
:10191000882319F081EC91E002C08AEB91E09F935B
:101920008F9381E08F930E940E080F900F900F907D
:10193000089590E09F938F9388EC91E09F938F930D
:1019400081E08F930E940E080F900F900F900F90E0
:101950000F900895EF92FF920F931F937B018C01DC
:1019600020E030E040E05FE40E94841088238CF0A7
:1019700020E030E040E05FE4C801B7010E94220EA1
:101980000E9442119B01AC01205030404040504821
:1019900006C0C801B7010E9442119B01AC01B90108
:1019A000CA011F910F91FF90EF900895A0E0B0E061
:1019B000ECEDFCE00C943A14DC012B01FA019C9153
:1019C000923008F439C1EB018881823008F433C1C8
:1019D000943069F4843009F02FC111969C911197CD
:1019E0008981981709F428C1A6E6B1E025C18430A1
:1019F00009F421C18230A9F4923009F01DC19A0185
:101A0000AD0188E0EA010990AE01E90109929E0169
:101A10008150C1F7E201898111969C9189238183CC
:101A200008C1923009F407C112962D903C9013978B
:101A3000EB018A819B811496AD90BD90CD90DC9096
:101A40001797EC80FD800E811F819101281B390BB7
:101A5000B90137FF04C066277727621B730B60321A
:101A600071050CF061C0121613066CF537014801C0
:101A7000062E04C096948794779467940A94D2F7BC
:101A800021E030E040E050E004C0220F331F441F4B
:101A9000551F6A95D2F721503040404050402E21CA
:101AA0003F2140235123211531054105510521F0E6
:101AB00021E030E040E050E079018A01E628F72893
:101AC000082919293CC0232BD1F1260E371E3501D8
:101AD0004601062E04C096948794779467940A94DE
:101AE000D2F721E030E040E050E004C0220F331F85
:101AF000441F551F6A95D2F7215030404040504056
:101B00002A213B214C215D2121153105410551053B
:101B100021F021E030E040E050E059016A01A628C0
:101B2000B728C828D9280BC0821593052CF01C01B2
:101B3000AA24BB24650103C0EE24FF24870111966B
:101B40009C91D20111968C91981709F445C0992364
:101B500039F0A80197012A193B094C095D0906C013
:101B6000A60195012E193F09400B510B57FD08C0E6
:101B700011823382228224833583468357831DC09A
:101B800081E081833382228288279927DC01821BAE
:101B9000930BA40BB50B84839583A683B7830DC0E9
:101BA000220F331F441F551F2483358346835783D9
:101BB0008281938101979383828324813581468139
:101BC0005781DA01C9010197A109B1098F5F9F4FC0
:101BD000AF4FBF4328F30BC0918333822282EA0CBC
:101BE000FB1C0C1D1D1DE482F5820683178383E018
:101BF0008083248135814681578157FF1AC0C901EE
:101C0000AA2797FDA095BA2F81709070A070B07030
:101C10005695479537952795822B932BA42BB52B5B
:101C200084839583A683B78382819381019693836E
:101C30008283DF0101C0D201CD01CDB7DEB7E2E181
:101C40000C945614A0E2B0E0E8E2FEE00C944614D6
:101C500069837A838B839C832D833E834F8358874C
:101C6000E9E0EE2EF12CEC0EFD1EB701CE0101963F
:101C70000E9433138E010F5E1F4FB801CE010596EF
:101C80000E9433138A8991E089278A8BAE01475ECF
:101C90005F4FB801C7010E94D60C0E945E12A09649
:101CA000E6E00C946214A0E2B0E0E9E5FEE00C94FA
:101CB000461469837A838B839C832D833E834F8371
:101CC0005887F9E0EF2EF12CEC0EFD1EB701CE0186
:101CD00001960E9433138E010F5E1F4FB801CE0193
:101CE00005960E943313AE01475E5F4FB801C701EE
:101CF0000E94D60C0E945E12A096E6E00C9462143C
:101D0000A0E2B0E0E6E8FEE00C943A1469837A833E
:101D10008B839C832D833E834F835887BE01675FEF
:101D20007F4FCE0101960E943313BE016F5E7F4F3D
:101D3000CE0105960E9433139985923088F08989E7
:101D40008230C8F0943019F4823051F404C08430E9
:101D500029F4923081F486E691E0C6C0923049F4CD
:101D600020E09A858A89981321E02A87CE01099676
:101D7000BBC0823049F420E09A858A89981321E01B
:101D80002A8BCE014196B0C02D843E844F84588862
:101D90006D887E888F88988CEE24FF248701AA2482
:101DA000BB24650140E050E060E070E0E0E0F0E07E
:101DB000C10181709070892BE9F0E60CF71C081DB9
:101DC000191D9A01AB012A0D3B1D4C1D5D1D80E0C4
:101DD00090E0A0E0B0E0E614F7040805190520F44F
:101DE00081E090E0A0E0B0E0BA01A901480F591FDE
:101DF0006A1F7B1FAA0CBB1CCC1CDD1C97FE08C0F5
:101E000081E090E0A0E0B0E0A82AB92ACA2ADB2A43
:101E10003196E032F10549F0660C771C881C991C5C
:101E20005694479437942794C3CFFA85EA892B892F
:101E30003C898B859C85280F391F2E5F3F4F17C02B
:101E4000CA0181709070892B61F016950795F794FF
:101E5000E79480E090E0A0E0B0E8E82AF92A0A2BB5
:101E60001B2B76956795579547952F5F3F4F77FDCD
:101E7000E7CF0CC0440F551F661F771F17FD416049
:101E8000EE0CFF1C001F111F21503040403090E02D
:101E9000590790E0690790E4790760F32B8F3C8F36
:101EA000DB01CA018F779070A070B070803491050B
:101EB000A105B10561F447FD0AC0E114F104010573
:101EC000110529F0405C5F4F6F4F7F4F40781A8EAD
:101ED000FE1711F081E08A8F4D8F5E8F6F8F78A390
:101EE00083E0898FCE0149960E945E12A096E2E1BE
:101EF0000C945614A8E1B0E0E0E8FFE00C94421422
:101F000069837A838B839C832D833E834F83588799
:101F1000B9E0EB2EF12CEC0EFD1EB701CE010196BF
:101F20000E9433138E010F5E1F4FB801CE0105963C
:101F30000E9433132985223008F47CC0398932305D
:101F400010F4B8017AC08A859A8989278A87243053
:101F500011F0223031F4231709F06CC066E671E00D
:101F60006CC0343039F41D861E861F86188A1C8684
:101F70001B8604C0323021F484E08987B7015DC03C
:101F80002B853C858B899C89281B390B3C872B87AB
:101F9000ED84FE840F851889AD88BE88CF88D88CE3
:101FA000EA14FB040C051D0540F4EE0CFF1C001F99
:101FB000111F215030403C872B8720E030E040E06B
:101FC00050E080E090E0A0E0B0E46FE170E0EA145F
:101FD000FB040C051D0540F0282B392B4A2B5B2BED
:101FE000EA18FB080C091D09B695A79597958795E2
:101FF000EE0CFF1C001F111F6150704041F7DA0109
:10200000C9018F779070A070B07080349105A105E0
:10201000B10561F427FD0AC0E114F10401051105C1
:1020200029F0205C3F4F4F4F5F4F20782D873E8730
:102030004F87588BBE01675F7F4FCB010E945E12B6
:102040006896EAE00C945E14A8E1B0E0EAE2F0E100
:102050000C94461469837A838B839C832D833E83FF
:102060004F83588789E0E82EF12CEC0EFD1EB70156
:10207000CE0101960E9433138E010F5E1F4FB801EF
:10208000CE0105960E9433138985823040F08989FC
:10209000823028F0B801C7010E94AB1301C081E073
:1020A0006896E6E00C946214A8E1B0E0EAE5F0E19D
:1020B0000C94461469837A838B839C832D833E839F
:1020C0004F83588789E0E82EF12CEC0EFD1EB701F6
:1020D000CE0101960E9433138E010F5E1F4FB8018F
:1020E000CE0105960E9433138985823040F089899C
:1020F000823028F0B801C7010E94AB1301C08FEFF6
:102100006896E6E00C946214A8E1B0E0EAE8F0E139
:102110000C94461469837A838B839C832D833E833E
:102120004F83588789E0E82EF12CEC0EFD1EB70195
:10213000CE0101960E9433138E010F5E1F4FB8012E
:10214000CE0105960E9433138985823040F089893B
:10215000823028F0B801C7010E94AB1301C08FEF95
:102160006896E6E00C946214A8E1B0E0EAEBF0E1D6
:102170000C94461469837A838B839C832D833E83DE
:102180004F83588789E0E82EF12CEC0EFD1EB70135
:10219000CE0101960E9433138E010F5E1F4FB801CE
:1021A000CE0105960E9433138985823040F08989DB
:1021B000823028F0B801C7010E94AB1301C081E052
:1021C0006896E6E00C946214A8E0B0E0EAEEF0E174
:1021D0000C9443149B01AC0183E08983DA01C901AB
:1021E0008827B7FD83959927AA27BB27B82E2115E5
:1021F00031054105510519F482E089833AC08823ED
:10220000A9F0203080E0380780E0480780E85807D0
:1022100029F460E070E080E09FEC30C0EE24FF2401
:102220008701E21AF30A040B150B02C079018A0137
:102230008EE1C82ED12CDC82CB82ED82FE820F8310
:102240001887C801B7010E940F12019718161906C6
:1022500084F4082E04C0EE0CFF1C001F111F0A940A
:10226000D2F7ED82FE820F831887C81AD90ADC8262
:10227000CB82BA82CE0101960E945E122896E9E0D6
:102280000C945F14ACE0B0E0E8E4F1E10C944A1483
:1022900069837A838B839C83BE016B5F7F4FCE0102
:1022A00001960E9433138D81823061F1823050F1AA
:1022B000843021F48E81882351F12EC02F813885FE
:1022C00037FD20C06E812F3131051CF06623F9F0F7
:1022D00023C08EE190E0821B930B29853A854B85C4
:1022E0005C8504C056954795379527958A95D2F712
:1022F0006623B1F050954095309521953F4F4F4F53
:102300005F4F0EC020E030E040E050E009C02FEF0A
:102310003FEF4FEF5FE704C020E030E040E050E8DF
:10232000B901CA012C96E2E00C946614A8E0B0E072
:10233000ECE9F1E10C9444147B018C016115710509
:102340008105910519F482E0898360C083E0898367
:102350008EE1C82ED12CDC82CB82ED82FE820F83EF
:102360001887C801B7010E940F12BC01615070406C
:1023700077FF39C0EE27FF27E61BF70B20E030E0A0
:1023800040E050E081E090E0A0E0B0E00E2E04C01C
:10239000880F991FAA1FBB1F0A94D2F70197A109A2
:1023A000B1098E219F21A023B1230097A105B1057A
:1023B00021F021E030E040E050E004C016950795A0
:1023C000F794E794EA95D2F72E293F29402B512B19
:1023D0002D833E834F8358878EE190E0861B970BB9
:1023E0009C838B8313C06115710581F0062E04C098
:1023F000EE0CFF1C001F111F0A94D2F7ED82FE8223
:102400000F831887C61AD70ADC82CB821A82CE01C4
:1024100001960E945E122896E8E00C946014EF92F8
:10242000FF920F931F937B018C0180E0E81680E000
:10243000F80681E0080780E0180788F48FEFE816B7
:10244000F1040105110531F028F088E090E0A0E0EA
:10245000B0E017C080E090E0A0E0B0E012C080E003
:10246000E81680E0F80680E0080781E0180728F009
:1024700088E190E0A0E0B0E004C080E190E0A0E05E
:10248000B0E020E230E040E050E0281B390B4A0B7E
:102490005B0B04C016950795F794E7948A95D2F7DD
:1024A000F701E259FE4F8081281B3109410951098A
:1024B000C9011F910F91FF90EF900895DF92EF9265
:1024C000FF920F931F93FC01E480F5800681178132
:1024D000D1808081823048F480E090E0A0E1B0E0DB
:1024E000E82AF92A0A2B1B2BA5C0843009F49FC0C7
:1024F000823021F4EE24FF24870105C0E114F104A9
:102500000105110519F4E0E0F0E096C062817381E5
:102510009FEF623879070CF05BC022E83FEF261B83
:10252000370B2A3131052CF020E030E040E050E05C
:102530002AC0B801A701022E04C076956795579569
:1025400047950A94D2F781E090E0A0E0B0E004C0A3
:10255000880F991FAA1FBB1F2A95D2F70197A109BF
:10256000B1098E219F21A023B1230097A105B105B8
:1025700021F081E090E0A0E0B0E09A01AB01282BCF
:10258000392B4A2B5B2BDA01C9018F779070A07031
:10259000B07080349105A105B10539F427FF09C059
:1025A000205C3F4F4F4F5F4F04C0215C3F4F4F4F68
:1025B0005F4FE0E0F0E02030A0E03A07A0E04A07FB
:1025C000A0E45A0710F0E1E0F0E079018A0127C0A9
:1025D0006038710564F5FB01E158FF4FD801C70170
:1025E0008F779070A070B07080349105A105B1050F
:1025F00039F4E7FE0DC080E490E0A0E0B0E004C054
:102600008FE390E0A0E0B0E0E80EF91E0A1F1B1F68
:1026100017FF05C016950795F794E794319687E064
:1026200016950795F794E7948A95D1F705C0EE249F
:10263000FF248701EFEFF0E06E2F6795662767951F
:10264000902F9F77D794DD24D7948E2F8695492F8E
:10265000462B582F5D29B701CA011F910F91FF909A
:10266000EF90DF900895FC01DB01408151812281D0
:10267000622F6F7770E0221F2227221F9381892FFC
:10268000880F822B282F30E0991F9927991F1196C8
:102690009C93119721153105A9F541155105610547
:1026A000710511F482E037C082E89FEF13969C9386
:1026B0008E9312979A01AB0167E0220F331F441FDC
:1026C000551F6A95D1F783E08C930DC0220F331FFD
:1026D000441F551F12968D919C9113970197139645
:1026E0009C938E931297203080E0380780E0480753
:1026F00080E4580758F314962D933D934D935C93C3
:10270000179708952F3F310579F44115510561055B
:10271000710519F484E08C93089564FF03C081E08F
:102720008C9312C01C9210C02F57304013963C93CC
:102730002E93129783E08C9387E0440F551F661FFA
:10274000771F8A95D1F7706414964D935D936D93BE
:102750007C93179708951F93DC01FB019C919230A5
:1027600008F447C08081823008F443C0943051F4AB
:1027700011961C91843099F58181682F70E0611B5E
:1027800071093FC0843021F0923031F48230B9F1C8
:102790008181882389F12DC011961C911197823077
:1027A000F1F081811817D9F412962D913C9113976D
:1027B000828193818217930794F028173907BCF020
:1027C00014968D919D910D90BC91A02D2481358101
:1027D00046815781281739074A075B0718F41123E8
:1027E00041F00AC082179307A407B50740F41123EC
:1027F00019F061E070E005C06FEF7FEF02C060E0AC
:1028000070E0CB011F910895AA1BBB1B51E107C0CB
:10281000AA1FBB1FA617B70710F0A61BB70B881F70
:10282000991F5A95A9F780959095BC01CD010895FF
:10283000A1E21A2EAA1BBB1BFD010DC0AA1FBB1FC4
:10284000EE1FFF1FA217B307E407F50720F0A21B36
:10285000B30BE40BF50B661F771F881F991F1A94A3
:1028600069F760957095809590959B01AC01BD01CD
:10287000CF0108952F923F924F925F926F927F9275
:102880008F929F92AF92BF92CF92DF92EF92FF9280
:102890000F931F93CF93DF93CDB7DEB7CA1BDB0B2C
:1028A0000FB6F894DEBF0FBECDBF09942A883988D1
:1028B00048885F846E847D848C849B84AA84B984D8
:1028C000C884DF80EE80FD800C811B81AA81B981E4
:1028D000CE0FD11D0FB6F894DEBF0FBECDBFED01F8
:0C28E00008959B01AC010CCAF894FFCFD6
:1028EC0020204C43204D65746572204949492020B5
:1028FC000064616E73776F726B73686F702E636FA9
:10290C006D0053776974636820746F2043616C2F7A
:10291C00432000666F722063616C69627261746936
:10292C006F6E2E0063616C6962726174696E672EE2
:10293C002E2E20200020202020202020202020208F
:10294C0020202020200000000000000000000001DA
:10295C000202030303030404040404040404050531
:10296C000505050505050505050505050505060609
:10297C0006060606060606060606060606060606EB
:10298C0006060606060606060606060606060707D9
:10299C0007070707070707070707070707070707BB
:1029AC0007070707070707070707070707070707AB
:1029BC00070707070707070707070707070707079B
:1029CC000707070707070707070707070707080889
:1029DC00080808080808080808080808080808086B
:1029EC00080808080808080808080808080808085B
:1029FC00080808080808080808080808080808084B
:102A0C00080808080808080808080808080808083A
:102A1C00080808080808080808080808080808082A
:102A2C00080808080808080808080808080808081A
:102A3C00080808080808080808080808080808080A
:0E2A4C0008080808080808080808080808080C
:00000001FF
